{
  "_format": "hh-sol-artifact-1",
  "contractName": "Token",
  "sourceName": "contracts/Token.sol",
  "abi": [
    {
      "inputs": [],
      "stateMutability": "nonpayable",
      "type": "constructor"
    },
    {
      "inputs": [
        {
          "internalType": "address",
          "name": "account",
          "type": "address"
        }
      ],
      "name": "balanceOf",
      "outputs": [
        {
          "internalType": "uint256",
          "name": "",
          "type": "uint256"
        }
      ],
      "stateMutability": "view",
      "type": "function"
    },
    {
      "inputs": [],
      "name": "name",
      "outputs": [
        {
          "internalType": "string",
          "name": "",
          "type": "string"
        }
      ],
      "stateMutability": "view",
      "type": "function"
    },
    {
      "inputs": [],
      "name": "symbol",
      "outputs": [
        {
          "internalType": "string",
          "name": "",
          "type": "string"
        }
      ],
      "stateMutability": "view",
      "type": "function"
    },
    {
      "inputs": [],
      "name": "totalSupply",
      "outputs": [
        {
          "internalType": "uint256",
          "name": "",
          "type": "uint256"
        }
      ],
      "stateMutability": "view",
      "type": "function"
    }
  ],
  "bytecode": "0x60806040526040518060400160405280600f81526020017f536f6d6520436f6f6c20546f6b656e00000000000000000000000000000000008152506000908051906020019061004f9291906100fb565b506040518060400160405280600381526020017f53435400000000000000000000000000000000000000000000000000000000008152506001908051906020019061009b9291906100fb565b50620f42406002553480156100af57600080fd5b50600254600360003373ffffffffffffffffffffffffffffffffffffffff1673ffffffffffffffffffffffffffffffffffffffff168152602001908152602001600020819055506101ff565b8280546101079061019e565b90600052602060002090601f0160209004810192826101295760008555610170565b82601f1061014257805160ff1916838001178555610170565b82800160010185558215610170579182015b8281111561016f578251825591602001919060010190610154565b5b50905061017d9190610181565b5090565b5b8082111561019a576000816000905550600101610182565b5090565b600060028204905060018216806101b657607f821691505b602082108114156101ca576101c96101d0565b5b50919050565b7f4e487b7100000000000000000000000000000000000000000000000000000000600052602260045260246000fd5b6104538061020e6000396000f3fe608060405234801561001057600080fd5b506004361061004c5760003560e01c806306fdde031461005157806318160ddd1461006f57806370a082311461008d57806395d89b41146100bd575b600080fd5b6100596100db565b60405161006691906102cc565b60405180910390f35b610077610169565b60405161008491906102ee565b60405180910390f35b6100a760048036038101906100a2919061025b565b61016f565b6040516100b491906102ee565b60405180910390f35b6100c56101b8565b6040516100d291906102cc565b60405180910390f35b600080546100e890610394565b80601f016020809104026020016040519081016040528092919081815260200182805461011490610394565b80156101615780601f1061013657610100808354040283529160200191610161565b820191906000526020600020905b81548152906001019060200180831161014457829003601f168201915b505050505081565b60025481565b6000600360008373ffffffffffffffffffffffffffffffffffffffff1673ffffffffffffffffffffffffffffffffffffffff168152602001908152602001600020549050919050565b600180546101c590610394565b80601f01602080910402602001604051908101604052809291908181526020018280546101f190610394565b801561023e5780601f106102135761010080835404028352916020019161023e565b820191906000526020600020905b81548152906001019060200180831161022157829003601f168201915b505050505081565b60008135905061025581610406565b92915050565b60006020828403121561026d57600080fd5b600061027b84828501610246565b91505092915050565b600061028f82610309565b6102998185610314565b93506102a9818560208601610361565b6102b2816103f5565b840191505092915050565b6102c681610357565b82525050565b600060208201905081810360008301526102e68184610284565b905092915050565b600060208201905061030360008301846102bd565b92915050565b600081519050919050565b600082825260208201905092915050565b600061033082610337565b9050919050565b600073ffffffffffffffffffffffffffffffffffffffff82169050919050565b6000819050919050565b60005b8381101561037f578082015181840152602081019050610364565b8381111561038e576000848401525b50505050565b600060028204905060018216806103ac57607f821691505b602082108114156103c0576103bf6103c6565b5b50919050565b7f4e487b7100000000000000000000000000000000000000000000000000000000600052602260045260246000fd5b6000601f19601f8301169050919050565b61040f81610325565b811461041a57600080fd5b5056fea2646970667358221220381b8ebcfa152c0137e4adf867596eb3708a05e4b2165fe97c529b85381889ae64736f6c63430008040033",
  "linkReferences": {},
  "deployedLinkReferences": {}
}